{
  "contractName": "Election",
  "abi": [
    {
      "constant": true,
      "inputs": [],
      "name": "candidatesCount",
      "outputs": [
        {
          "name": "",
          "type": "uint256"
        }
      ],
      "payable": false,
      "stateMutability": "view",
      "type": "function"
    },
    {
      "constant": true,
      "inputs": [
        {
          "name": "",
          "type": "uint256"
        }
      ],
      "name": "candidates",
      "outputs": [
        {
          "name": "id",
          "type": "uint256"
        },
        {
          "name": "name",
          "type": "string"
        },
        {
          "name": "voteCount",
          "type": "uint256"
        }
      ],
      "payable": false,
      "stateMutability": "view",
      "type": "function"
    },
    {
      "constant": true,
      "inputs": [],
      "name": "votersCount",
      "outputs": [
        {
          "name": "",
          "type": "uint256"
        }
      ],
      "payable": false,
      "stateMutability": "view",
      "type": "function"
    },
    {
      "constant": true,
      "inputs": [
        {
          "name": "",
          "type": "address"
        }
      ],
      "name": "voters",
      "outputs": [
        {
          "name": "NID",
          "type": "uint256"
        },
        {
          "name": "eligibility",
          "type": "bool"
        },
        {
          "name": "hasVoted",
          "type": "bool"
        },
        {
          "name": "signedBlindedVote",
          "type": "bytes"
        }
      ],
      "payable": false,
      "stateMutability": "view",
      "type": "function"
    },
    {
      "inputs": [],
      "payable": false,
      "stateMutability": "nonpayable",
      "type": "constructor"
    },
    {
      "anonymous": false,
      "inputs": [
        {
          "indexed": true,
          "name": "_candidateId",
          "type": "uint256"
        }
      ],
      "name": "votedEvent",
      "type": "event"
    },
    {
      "anonymous": false,
      "inputs": [],
      "name": "verificationSuccess",
      "type": "event"
    },
    {
      "anonymous": false,
      "inputs": [
        {
          "indexed": true,
          "name": "_nationalID",
          "type": "uint256"
        }
      ],
      "name": "newVoter",
      "type": "event"
    },
    {
      "constant": false,
      "inputs": [
        {
          "name": "_nationalID",
          "type": "uint256"
        }
      ],
      "name": "addVoter",
      "outputs": [],
      "payable": false,
      "stateMutability": "nonpayable",
      "type": "function"
    },
    {
      "constant": false,
      "inputs": [
        {
          "name": "_candidateId",
          "type": "uint256"
        },
        {
          "name": "_blindsignature",
          "type": "bytes"
        }
      ],
      "name": "vote",
      "outputs": [],
      "payable": false,
      "stateMutability": "nonpayable",
      "type": "function"
    },
    {
      "constant": false,
      "inputs": [
        {
          "name": "_candidateId",
          "type": "uint256"
        },
        {
          "name": "signature",
          "type": "bytes"
        }
      ],
      "name": "signatureVerification",
      "outputs": [
        {
          "name": "",
          "type": "bool"
        }
      ],
      "payable": false,
      "stateMutability": "nonpayable",
      "type": "function"
    }
  ],
  "bytecode": "0x60806040523480156200001157600080fd5b50731d6ec0e866bc2094c82f77bc40529c131b2599f7600460006101000a81548173ffffffffffffffffffffffffffffffffffffffff021916908373ffffffffffffffffffffffffffffffffffffffff160217905550620000b66040805190810160405280600b81526020017f43616e64696461746520310000000000000000000000000000000000000000008152506200010b640100000000026401000000009004565b620001056040805190810160405280600b81526020017f43616e64696461746520320000000000000000000000000000000000000000008152506200010b640100000000026401000000009004565b62000238565b6002600081548092919060010191905055506060604051908101604052806002548152602001828152602001600081525060008060025481526020019081526020016000206000820151816000015560208201518160010190805190602001906200017892919062000189565b506040820151816002015590505050565b828054600181600116156101000203166002900490600052602060002090601f016020900481019282601f10620001cc57805160ff1916838001178555620001fd565b82800160010185558215620001fd579182015b82811115620001fc578251825591602001919060010190620001df565b5b5090506200020c919062000210565b5090565b6200023591905b808211156200023157600081600090555060010162000217565b5090565b90565b610d9780620002486000396000f300608060405260043610610083576000357c0100000000000000000000000000000000000000000000000000000000900463ffffffff1680632d35a8a2146100885780633477ee2e146100b357806345ab90321461016757806398c07938146101f2578063a3ec138d1461021d578063b88b82ba146102f6578063d8f7a0bb14610369575b600080fd5b34801561009457600080fd5b5061009d610396565b6040518082815260200191505060405180910390f35b3480156100bf57600080fd5b506100de6004803603810190808035906020019092919050505061039c565b6040518084815260200180602001838152602001828103825284818151815260200191508051906020019080838360005b8381101561012a57808201518184015260208101905061010f565b50505050905090810190601f1680156101575780820380516001836020036101000a031916815260200191505b5094505050505060405180910390f35b34801561017357600080fd5b506101d860048036038101908080359060200190929190803590602001908201803590602001908080601f016020809104026020016040519081016040528093929190818152602001838380828437820191505050505050919291929050505061045e565b604051808215151515815260200191505060405180910390f35b3480156101fe57600080fd5b506102076105d0565b6040518082815260200191505060405180910390f35b34801561022957600080fd5b5061025e600480360381019080803573ffffffffffffffffffffffffffffffffffffffff1690602001909291905050506105d6565b60405180858152602001841515151581526020018315151515815260200180602001828103825283818151815260200191508051906020019080838360005b838110156102b857808201518184015260208101905061029d565b50505050905090810190601f1680156102e55780820380516001836020036101000a031916815260200191505b509550505050505060405180910390f35b34801561030257600080fd5b5061036760048036038101908080359060200190929190803590602001908201803590602001908080601f01602080910402602001604051908101604052809392919081815260200183838082843782019150505050505091929192905050506106b8565b005b34801561037557600080fd5b50610394600480360381019080803590602001909291905050506108af565b005b60025481565b6000602052806000526040600020600091509050806000015490806001018054600181600116156101000203166002900480601f01602080910402602001604051908101604052809291908181526020018280546001816001161561010002031660029004801561044e5780601f106104235761010080835404028352916020019161044e565b820191906000526020600020905b81548152906001019060200180831161043157829003601f168201915b5050505050908060020154905083565b60008061052e8430604051602001808381526020018273ffffffffffffffffffffffffffffffffffffffff1673ffffffffffffffffffffffffffffffffffffffff166c01000000000000000000000000028152601401925050506040516020818303038152906040526040518082805190602001908083835b6020831015156104fc57805182526020820191506020810190506020830392506104d7565b6001836020036101000a0380198251168184511680821785525050505050509050019150506040518091039020610aa7565b9050600460009054906101000a900473ffffffffffffffffffffffffffffffffffffffff1673ffffffffffffffffffffffffffffffffffffffff166105738285610b62565b73ffffffffffffffffffffffffffffffffffffffff1614156105c4577f45078296fc63362513b28d3ee8be8c407d7d213a7d6823ad8f50b8490b49c8c760405160405180910390a1600191506105c9565b600091505b5092915050565b60035481565b60016020528060005260406000206000915090508060000154908060010160009054906101000a900460ff16908060010160019054906101000a900460ff1690806002018054600181600116156101000203166002900480601f0160208091040260200160405190810160405280929190818152602001828054600181600116156101000203166002900480156106ae5780601f10610683576101008083540402835291602001916106ae565b820191906000526020600020905b81548152906001019060200180831161069157829003601f168201915b5050505050905084565b60011515600160003373ffffffffffffffffffffffffffffffffffffffff1673ffffffffffffffffffffffffffffffffffffffff16815260200190815260200160002060010160009054906101000a900460ff16151514151561071a57600080fd5b600160003373ffffffffffffffffffffffffffffffffffffffff1673ffffffffffffffffffffffffffffffffffffffff16815260200190815260200160002060010160019054906101000a900460ff1615151561077657600080fd5b60008211801561078857506002548211155b151561079357600080fd5b61079d828261045e565b15156107a857600080fd5b80600160003373ffffffffffffffffffffffffffffffffffffffff1673ffffffffffffffffffffffffffffffffffffffff16815260200190815260200160002060020190805190602001906107fe929190610c46565b5060018060003373ffffffffffffffffffffffffffffffffffffffff1673ffffffffffffffffffffffffffffffffffffffff16815260200190815260200160002060010160016101000a81548160ff02191690831515021790555060008083815260200190815260200160002060020160008154809291906001019190505550817ffff3c900d938d21d0990d786e819f29b8d05c1ef587b462b939609625b684b1660405160405180910390a25050565b60001515600160003373ffffffffffffffffffffffffffffffffffffffff1673ffffffffffffffffffffffffffffffffffffffff16815260200190815260200160002060010160009054906101000a900460ff161515148015610954575080600160003373ffffffffffffffffffffffffffffffffffffffff1673ffffffffffffffffffffffffffffffffffffffff1681526020019081526020016000206000015414155b151561095f57600080fd5b6003600081548092919060010191905055506080604051908101604052808281526020016001151581526020016000151581526020016040805190810160405280600381526020017f3078300000000000000000000000000000000000000000000000000000000000815250815250600160003373ffffffffffffffffffffffffffffffffffffffff1673ffffffffffffffffffffffffffffffffffffffff1681526020019081526020016000206000820151816000015560208201518160010160006101000a81548160ff02191690831515021790555060408201518160010160016101000a81548160ff0219169083151502179055506060820151816002019080519060200190610a73929190610cc6565b50905050807fdf46bb731dd3f934fde468a9d86e0ccf9197f737d59f9df5e4d75f380a44e2d960405160405180910390a250565b60008160405160200180807f19457468657265756d205369676e6564204d6573736167653a0a333200000000815250601c0182600019166000191681526020019150506040516020818303038152906040526040518082805190602001908083835b602083101515610b2e5780518252602082019150602081019050602083039250610b09565b6001836020036101000a03801982511681845116808217855250505050505090500191505060405180910390209050919050565b600080600080610b7185610c09565b809350819450829550505050600186848484604051600081526020016040526040518085600019166000191681526020018460ff1660ff1681526020018360001916600019168152602001826000191660001916815260200194505050505060206040516020810390808403906000865af1158015610bf4573d6000803e3d6000fd5b50505060206040510351935050505092915050565b600080600060418451141515610c1e57600080fd5b6020840151915060408401519050606084015160001a92508282829250925092509193909250565b828054600181600116156101000203166002900490600052602060002090601f016020900481019282601f10610c8757805160ff1916838001178555610cb5565b82800160010185558215610cb5579182015b82811115610cb4578251825591602001919060010190610c99565b5b509050610cc29190610d46565b5090565b828054600181600116156101000203166002900490600052602060002090601f016020900481019282601f10610d0757805160ff1916838001178555610d35565b82800160010185558215610d35579182015b82811115610d34578251825591602001919060010190610d19565b5b509050610d429190610d46565b5090565b610d6891905b80821115610d64576000816000905550600101610d4c565b5090565b905600a165627a7a72305820b6b279e00d002dbc83ca970a0dcca197d4b621f573aac003912a85d9835810980029",
  "source": "pragma solidity ^0.4.23;\r\n\r\ncontract Election {\r\n// Model a Candidate\r\n struct Candidate {\r\n\tuint id;\r\n\tstring name;\r\n\tuint voteCount;\r\n}\r\n//Modle a voter\r\nstruct Voter {\r\n  uint NID;     // govt issued national identification number of candidate\r\n  bool eligibility;      // stores the valid list of voters during registration\r\n  bool hasVoted;    // updates when vote is successfully casted on blockchain\r\n  bytes signedBlindedVote;  // blind signature of casted vote\r\n}\r\n// Candidate ID mapped with candidate struct\r\nmapping(uint => Candidate) public candidates;\r\n\r\n// voter address mapped with voter's details and vote details\r\nmapping(address => Voter) public voters;\r\n\r\n// event for logging successful votes\r\nevent votedEvent(\r\n  uint indexed _candidateId\r\n  );\r\n  // event for logging successful votes\r\n\r\nevent verificationSuccess();  // emits when signature is successfully verified\r\n\r\n// event for logging successful voter registration\r\nevent newVoter(\r\n  uint indexed _nationalID\r\n);\r\n// Store Candidates Count\r\nuint public candidatesCount;   // counter cache for candidates\r\nuint public votersCount;    // counter cache for voters\r\n\r\naddress signerAddress; // variable that keeps signer's public key for the electionb\r\n\r\nconstructor() public {\r\n  // insert public key or signer here\r\n  signerAddress = 0x1D6EC0e866bC2094c82f77bc40529c131b2599f7;\r\n  addCandidate(\"Candidate 1\");\r\n\taddCandidate(\"Candidate 2\");\r\n\r\n//  addVoter(100);   addvoter() function is not used in constructor statement because it invokes require(), but the contract hasn't beem created before constructor call\r\n//  addVoter(200);\r\n  }\r\n\r\n// candidates are pre populated for the election (privately intitialized by the contract)\r\nfunction addCandidate(string _name) private {\r\ncandidatesCount++;\r\ncandidates[candidatesCount] = Candidate(candidatesCount, _name, 0); // Candidate(ID, NAME, VOTECOUNT)\r\n}\r\n\r\n// anyone can register for the election\r\nfunction addVoter(uint _nationalID) public {\r\nrequire(voters[msg.sender].eligibility == false && voters[msg.sender].NID != _nationalID);  //checks if voter has registered before with same NID / Disallows Double Registration\r\nvotersCount++;\r\nvoters[msg.sender] = Voter(_nationalID,true,false,'0x0');   // (NID, eligibility, hasVoted, signedBlindedVote)\r\nemit newVoter(_nationalID);\r\n}\r\n\r\nfunction vote(uint _candidateId, bytes _blindsignature) public {\r\n\r\n        // registered voter check\r\n        require(voters[msg.sender].eligibility == true);\r\n\r\n        // require that they haven't voted before\r\n        require(!voters[msg.sender].hasVoted);\r\n\r\n        // require a valid candidate\r\n        require(_candidateId > 0 && _candidateId <= candidatesCount);\r\n\r\n        // require a valid signature\r\n        require(signatureVerification(_candidateId,_blindsignature));\r\n\r\n        // record that voter's verified blind signature\r\n        voters[msg.sender].signedBlindedVote = _blindsignature;\r\n\r\n        // record that voter has voted\r\n        voters[msg.sender].hasVoted = true;\r\n\r\n        // update candidate vote Count\r\n        candidates[_candidateId].voteCount++;\r\n\r\n        //trigger voted event\r\n        emit votedEvent(_candidateId);\r\n    }\r\n\r\nfunction signatureVerification(uint _candidateId, bytes memory signature) public returns (bool) {\r\n    //  Nonce scheme can be implemented later\r\n    // require(!usedNonces[nonce]);\r\n    // usedNonces[nonce] = true;\r\n\r\n            // following statement recreates the message that was signed on the client\r\n            bytes32 message = prefixed(keccak256(abi.encodePacked(_candidateId, address(this))));\r\n\r\n            if(recoverSigner(message, signature) == signerAddress) {\r\n              emit verificationSuccess();    //event call\r\n              return true;\r\n            }\r\n            else return false;\r\n}\r\n\r\n/// builds a prefixed hash to mimic the behavior of eth_sign (concatenates a prefix, message length and the message itself then hashes it)\r\nfunction prefixed(bytes32 hash) internal pure returns (bytes32) {\r\n      return keccak256(abi.encodePacked(\"\\x19Ethereum Signed Message:\\n32\", hash));\r\n  }\r\n\r\nfunction recoverSigner(bytes32 message, bytes memory sig) internal pure returns (address){\r\n      uint8 v;\r\n      bytes32 r;\r\n      bytes32 s;\r\n      (v,r,s) = splitSignature(sig);\r\n      return ecrecover(message, v, r, s);     //core function that uses ECC to recover the signer address\r\n}\r\n/// signature methods.\r\nfunction splitSignature(bytes memory sig) internal pure returns (uint8 v, bytes32 r, bytes32 s) {\r\n      require(sig.length == 65);\r\n      assembly {\r\n          // first 32 bytes, after the length prefix.\r\n          r := mload(add(sig, 32))\r\n          // second 32 bytes.\r\n          s := mload(add(sig, 64))\r\n          // final byte (first byte of the next 32 bytes).\r\n          v := byte(0, mload(add(sig, 96)))\r\n      }\r\n      return (v, r, s);\r\n}\r\n\r\n}\r\n",
  "sourcePath": "L:/Personal Works/Student Code-In/Smart-Contracts-Migration/Blockchain-project/contracts/election.sol",
  "compiler": {
    "name": "solc",
    "version": "0.4.23+commit.124ca40d.Emscripten.clang"
  },
  "schemaVersion": "3.0.22",
  "updatedAt": "2020-08-15T12:39:27.445Z",
  "networkType": "ethereum",
  "devdoc": {
    "methods": {}
  },
  "userdoc": {
    "methods": {}
  }
}