{
  "contractName": "Election",
  "abi": [
    {
      "constant": true,
      "inputs": [],
      "name": "candidatesCount",
      "outputs": [
        {
          "name": "",
          "type": "uint256"
        }
      ],
      "payable": false,
      "stateMutability": "view",
      "type": "function"
    },
    {
      "constant": true,
      "inputs": [
        {
          "name": "",
          "type": "uint256"
        }
      ],
      "name": "candidates",
      "outputs": [
        {
          "name": "id",
          "type": "uint256"
        },
        {
          "name": "name",
          "type": "string"
        },
        {
          "name": "voteCount",
          "type": "uint256"
        }
      ],
      "payable": false,
      "stateMutability": "view",
      "type": "function"
    },
    {
      "constant": true,
      "inputs": [],
      "name": "votersCount",
      "outputs": [
        {
          "name": "",
          "type": "uint256"
        }
      ],
      "payable": false,
      "stateMutability": "view",
      "type": "function"
    },
    {
      "constant": true,
      "inputs": [
        {
          "name": "",
          "type": "address"
        }
      ],
      "name": "voters",
      "outputs": [
        {
          "name": "NID",
          "type": "uint256"
        },
        {
          "name": "eligibility",
          "type": "bool"
        },
        {
          "name": "hasVoted",
          "type": "bool"
        },
        {
          "name": "blindedVote",
          "type": "uint256"
        },
        {
          "name": "signedBlindedVote",
          "type": "uint256"
        }
      ],
      "payable": false,
      "stateMutability": "view",
      "type": "function"
    },
    {
      "inputs": [],
      "payable": false,
      "stateMutability": "nonpayable",
      "type": "constructor"
    },
    {
      "anonymous": false,
      "inputs": [
        {
          "indexed": true,
          "name": "_candidateId",
          "type": "uint256"
        }
      ],
      "name": "votedEvent",
      "type": "event"
    },
    {
      "constant": false,
      "inputs": [
        {
          "name": "_nationalID",
          "type": "uint256"
        }
      ],
      "name": "addVoter",
      "outputs": [],
      "payable": false,
      "stateMutability": "nonpayable",
      "type": "function"
    },
    {
      "constant": false,
      "inputs": [
        {
          "name": "_candidateId",
          "type": "uint256"
        }
      ],
      "name": "vote",
      "outputs": [],
      "payable": false,
      "stateMutability": "nonpayable",
      "type": "function"
    }
  ],
  "bytecode": "0x608060405234801561001057600080fd5b5061005e6040805190810160405280600b81526020017f43616e64696461746520310000000000000000000000000000000000000000008152506100e2640100000000026401000000009004565b6100ab6040805190810160405280600b81526020017f43616e64696461746520320000000000000000000000000000000000000000008152506100e2640100000000026401000000009004565b6100c4606461015e640100000000026401000000009004565b6100dd60c861015e640100000000026401000000009004565b6102e8565b60026000815480929190600101919050555060606040519081016040528060025481526020018281526020016000815250600080600254815260200190815260200160002060008201518160000155602082015181600101908051906020019061014d929190610243565b506040820151816002015590505050565b60036000815480929190600101919050555060a060405190810160405280828152602001600115158152602001600015158152602001600081526020016000815250600160003373ffffffffffffffffffffffffffffffffffffffff1673ffffffffffffffffffffffffffffffffffffffff1681526020019081526020016000206000820151816000015560208201518160010160006101000a81548160ff02191690831515021790555060408201518160010160016101000a81548160ff021916908315150217905550606082015181600201556080820151816003015590505050565b828054600181600116156101000203166002900490600052602060002090601f016020900481019282601f1061028457805160ff19168380011785556102b2565b828001600101855582156102b2579182015b828111156102b1578251825591602001919060010190610296565b5b5090506102bf91906102c3565b5090565b6102e591905b808211156102e15760008160009055506001016102c9565b5090565b90565b610615806102f76000396000f300608060405260043610610078576000357c0100000000000000000000000000000000000000000000000000000000900463ffffffff1680630121b93f1461007d5780632d35a8a2146100aa5780633477ee2e146100d557806398c0793814610189578063a3ec138d146101b4578063d8f7a0bb1461022f575b600080fd5b34801561008957600080fd5b506100a86004803603810190808035906020019092919050505061025c565b005b3480156100b657600080fd5b506100bf6103e6565b6040518082815260200191505060405180910390f35b3480156100e157600080fd5b50610100600480360381019080803590602001909291905050506103ec565b6040518084815260200180602001838152602001828103825284818151815260200191508051906020019080838360005b8381101561014c578082015181840152602081019050610131565b50505050905090810190601f1680156101795780820380516001836020036101000a031916815260200191505b5094505050505060405180910390f35b34801561019557600080fd5b5061019e6104ae565b6040518082815260200191505060405180910390f35b3480156101c057600080fd5b506101f5600480360381019080803573ffffffffffffffffffffffffffffffffffffffff1690602001909291905050506104b4565b6040518086815260200185151515158152602001841515151581526020018381526020018281526020019550505050505060405180910390f35b34801561023b57600080fd5b5061025a60048036038101908080359060200190929190505050610504565b005b60011515600160003373ffffffffffffffffffffffffffffffffffffffff1673ffffffffffffffffffffffffffffffffffffffff16815260200190815260200160002060010160009054906101000a900460ff1615151415156102be57600080fd5b600160003373ffffffffffffffffffffffffffffffffffffffff1673ffffffffffffffffffffffffffffffffffffffff16815260200190815260200160002060010160019054906101000a900460ff1615151561031a57600080fd5b60008111801561032c57506002548111155b151561033757600080fd5b60018060003373ffffffffffffffffffffffffffffffffffffffff1673ffffffffffffffffffffffffffffffffffffffff16815260200190815260200160002060010160016101000a81548160ff02191690831515021790555060008082815260200190815260200160002060020160008154809291906001019190505550807ffff3c900d938d21d0990d786e819f29b8d05c1ef587b462b939609625b684b1660405160405180910390a250565b60025481565b6000602052806000526040600020600091509050806000015490806001018054600181600116156101000203166002900480601f01602080910402602001604051908101604052809291908181526020018280546001816001161561010002031660029004801561049e5780601f106104735761010080835404028352916020019161049e565b820191906000526020600020905b81548152906001019060200180831161048157829003601f168201915b5050505050908060020154905083565b60035481565b60016020528060005260406000206000915090508060000154908060010160009054906101000a900460ff16908060010160019054906101000a900460ff16908060020154908060030154905085565b60036000815480929190600101919050555060a060405190810160405280828152602001600115158152602001600015158152602001600081526020016000815250600160003373ffffffffffffffffffffffffffffffffffffffff1673ffffffffffffffffffffffffffffffffffffffff1681526020019081526020016000206000820151816000015560208201518160010160006101000a81548160ff02191690831515021790555060408201518160010160016101000a81548160ff0219169083151502179055506060820151816002015560808201518160030155905050505600a165627a7a72305820839f1b2b60c267e5e5f52075160e568fd258c37cdf8f01985f30adab36fa3fb50029",
  "source": "pragma solidity ^0.4.2;\r\n\r\ncontract Election {\r\n// Model a Candidate\r\n struct Candidate {\r\n\tuint id;\r\n\tstring name;\r\n\tuint voteCount;\r\n}\r\n//Modle a voter\r\nstruct Voter {\r\n  uint NID;     // govt issued national identification number of candidate\r\n  bool eligibility;      // stores the valid list of voters during registration\r\n  bool hasVoted;    // updates when vote is successfully casted on blockchain\r\n  uint blindedVote;    // stores each voter's hashed vote\r\n  uint signedBlindedVote;  // blind signature of casted vote\r\n}\r\n// Read/write candidates\r\nmapping(uint => Candidate) public candidates;\r\n\r\n// Store accounts that have voted\r\nmapping(address => Voter) public voters;\r\n\r\n// event for logging successful votes\r\nevent votedEvent(\r\n  uint indexed _candidateId\r\n  );\r\n// Store Candidates Count\r\nuint public candidatesCount;   // counter cache for candidates\r\nuint public votersCount;    // counter cache for voters\r\n\r\nconstructor() public {\r\n\taddCandidate(\"Candidate 1\");\r\n\taddCandidate(\"Candidate 2\");\r\n  addVoter(100);  // Null NID\r\n  addVoter(200);\r\n}\r\n\r\n// candidates are pre populated for the election\r\nfunction addCandidate(string _name) private {\r\ncandidatesCount++;\r\ncandidates[candidatesCount] = Candidate(candidatesCount, _name, 0);\r\n}\r\n\r\n// anyone can register for the election\r\nfunction addVoter(uint _nationalID) public {\r\nvotersCount++;\r\nvoters[msg.sender] = Voter(_nationalID,true,false,0,0);   // (NID, eligibility, hasVoted, BlindedVote, signedBlindedVote)\r\n}\r\n\r\nfunction vote(uint _candidateId) public {\r\n\r\n        // registered voter check\r\n        require(voters[msg.sender].eligibility == true);\r\n\r\n        // require that they haven't voted before\r\n        require(!voters[msg.sender].hasVoted);\r\n\r\n        // require a valid candidate\r\n        require(_candidateId > 0 && _candidateId <= candidatesCount);\r\n\r\n        // record that voter has voted\r\n        voters[msg.sender].hasVoted = true;\r\n\r\n        // update candidate vote Count\r\n        candidates[_candidateId].voteCount++;\r\n\r\n        //trigger voted event\r\n        emit votedEvent(_candidateId);\r\n    }\r\n}\r\n",
  "sourcePath": "L:/Personal Works/Student Code-In/Smart-Contracts-Migration/Blockchain-project/contracts/election.sol",
  "compiler": {
    "name": "solc",
    "version": "0.4.23+commit.124ca40d.Emscripten.clang"
  },
  "schemaVersion": "3.0.22",
  "updatedAt": "2020-08-06T14:54:56.112Z",
  "networkType": "ethereum",
  "devdoc": {
    "methods": {}
  },
  "userdoc": {
    "methods": {}
  }
}